:020000001028C6
:10000800FE00030E83120313A3000408A4000A08C9
:10001800A5007F08A600182B1128CC27E20083131F
:10002800A0308400DA30A127503084006230A12744
:1000380083012C281E28FF0000308A007F088207D1
:100048002428CE2E0B2FBE2ECA2F1C29D029342EA1
:1000580007309F048B170B17831681138312861B97
:100068003828AA010030BE25E0308312C6004608B1
:10007800E104023063268312C6004608CE0003302E
:1000880063268312C6004608CF004F08C600C70182
:100098004608C700C6014E084607D200470803189D
:1000A800470AD3001A26C527823083120313C700D4
:1000B800DD30C600C60B5E28C70B5E2800008E2701
:1000C800ED26982758270630282700306326FE3A61
:1000D800031D70280130712800309B250030B100C5
:1000E8000030B0000030AF006430AE0001309C2416
:1000F800C6004608DF005F1C6928FE30C6004608B7
:10010800AA000030BE2500308312BC00BD00BE012D
:10011800BE0ABF01BF0ADD24BD278A262D08CD00EF
:100128002C08CC002B08CB002A08CA00B927C60027
:100138004608DF00DF1CAC280030BC00BD000230E0
:10014800C6004608BE00BF01BF0ADD24023063278F
:100158005F1DBF28520853040319BD285308BD006A
:100168005208BC000230C6004608BE00BF01BF0AE4
:10017800DD2404306327DF1DD0285208C600460856
:10018800AA000230BE2583125308C6004608AA00FA
:100198000330BE25083063278A262A08C6002B08A4
:1001A800C7002C08C8002D08C9004A08C6024B0819
:1001B800031C4B0FE028E128C7024C08031C4C0F16
:1001C800E628E728C8024D08031C4D0FEC28ED2847
:1001D800C9024908031DFC284808031DFC284708D4
:1001E800031DFC2814304602031DFA28031C9A2814
:1001F8008A262D08CD002C08CC002B08CB002A0815
:10020800CA000030BC00BD000430C6004608BE006D
:10021800BF01DD24C8270D3083120313C700FB304C
:10022800C600C60B1529C70B15290000C1279A2837
:100238003C308F00AF308E0001308316B507003098
:1002480003180130B607003003180130B707003033
:1002580003180130B8078312A00183162008073954
:1002680083122002031808000A30F4007408F00012
:100278002008AD26A63E8400013083138007840A37
:1002880000300318013E031D8007840A003003185C
:10029800013E031D8007840A00300318013E8007D1
:1002A8000A30F4007408F0002008AD26A13E84004E
:1002B8008313001CCB290A30F4007408F0002008CE
:1002C800AD26A23E840083130008F500840A0008C6
:1002D800F600840A0008F700840A0008F8000A30CB
:1002E800F9007908F0002008AD26A63E84008313A3
:1002F8000008FA00840A0008FB00840A0008FC00D1
:10030800840A0008FD0078087D02031D95297708F6
:100318007C02031D952976087B02031D9529750823
:100328007A02031CCB290A30F4007408F000200874
:10033800AD26A63E8400003083138000840A003076
:100348008000840A00308000840A003080000A306F
:10035800F4007408F0002008AD26AA3E8400831338
:1003680000081F200A30F4007408F0002008AD26A9
:10037800A13E840083138018CB290A30F400740846
:10038800F0002008AD26A13E840083130010013040
:10039800F4007408A0073129682A7408063E84000E
:1003A8000008F6007608F80003307806031D342AA2
:1003B8007408113E84000008031D182A7408123EB0
:1003C8008400801EF3297408123E8400001CF02962
:1003D800831203138517F3298312031385137408F3
:1003E800123E84008313001F052A7408123E8400FD
:1003F800801C022A831203130514052A831203138F
:1004080005107408123E84008313801F08007408C6
:10041800123E8400001D142A831203138514080059
:1004280083120313851008007408113E840000032A
:10043800031D08007408133E84000008F600F70145
:100448007608F700F6017408123E84000008760763
:10045800D20077080318770AD300083079270800F4
:1004680002307806031D08007408123E8400001C40
:10047800412A831203138517442A83120313851311
:100488007408123E84008313801C4E2A83120313BF
:100498000514512A8312031305107408123E8400B0
:1004A8008313001D5B2A831203138514080083122B
:1004B8000313851008007408840007300006031D24
:1004C80008000130792708007308443A0319702A94
:1004D800013A0319752A7A2A7208813A0319D1292F
:1004E8007A2A7208C03A03195F2A7A2A0800FB00A0
:1004F800FB2AFE307B06031D0800D501D401D60176
:10050800D60A08007B08F90079088316B9007B0829
:10051800F90079088312D5060230F9007908D60067
:1005280008007B08F90079088316BA007B08F900EF
:1005380079088312D5060330F9007908D600080037
:100548007B08F90079088316BB007B08F900790855
:100558008312D50683163908031DB82A0530F90019
:1005680079088312D60008000430F900790883124C
:10057800D60008007B08F9005408BC3E84007908BE
:1005880080000130F9007908D4077B08F900790860
:10059800D5068316390883125406031D0800B22AAB
:1005A80055087B06031DF72A83163A08F900FA0155
:1005B8007908FA00F9013B0879078312D0007A0814
:1005C80003187A0AD1005108F3005008F200BC3031
:1005D800F9007908F40083163908FA007A08F5005A
:1005E800831257081F2083120313D60108005608E8
:1005F800F900FA017A08003A0319032B172B790836
:10060800003A03197D2A013A0319862A033A031985
:10061800952A013A0319A42A073A0319BE2A013A6E
:100628000319D42A172B08008C1E302B981C1E2B5C
:10063800181218160B118B16D73081001A08A20051
:100648002208A7005E080319302BFC012730A200FE
:100658002208FD005E081F200B1D3E2B0B118B127C
:10066800831203135E0803193E2BFC01FC0AFD01EB
:100678005E081F20831203130C1C4A2B5D08031904
:10068800472B5D081F20831203130C108C188C1045
:100698008B1C542B5B080319532B5B081F208B10F2
:1006A8000B1C792B831203130608A2002208A8004A
:1006B80062082806831606058312A2002208A900EC
:1006C800291E6B2B5A080319722B5A08712BA91E65
:1006D800722B59080319722B59081F208312031310
:1006E8002808A2002208E2000B1083120313260830
:1006F800FF0025088A0024088400230E8300FE0ECC
:100708007E0E09002A30B8003808BA0035080319E7
:10071800B60136080A3EB8003808BA063608B800E6
:100728003808BA063008B8003808BA063108B800E0
:100738003808BA063308B8003808BA063408B800CA
:100748003808BA06FE30A92736080A3EA9272430F9
:10075800A9270130A9273008A9273108A927320875
:10076800A9273208A9273308A9273408A927003060
:10077800A9270030A9270F30A9273608A927BB01C8
:1007880036083B020318DF2B3B083507B80038084A
:10079800840083130008A9273B083507B8003808E8
:1007A800840083130008B9003908BA060130B8007C
:1007B8003808BB07C42B3A08A927370803190800CB
:1007C8000130AC006430AD00AE01AF011A2708005B
:1007D800B400B501831620080739831235020318BF
:1007E80008000A30B2003208AA0035089C26A13E4B
:1007F80084008313000CB300330C07393406031D3F
:10080800422C0A30B2003208AA0035089C26A23EC3
:1008180084002E0883138000840A2F088000840A2D
:1008280030088000840A310880000A30B20032089B
:10083800AA0035089C26A63E840000308313800059
:10084800840A00308000840A00308000840A003066
:1008580080000A30B2003208AA0035089C26A13E62
:100868008400831380140A30B2003208AA003508C5
:100878009C26A13E84008313001408000130B200B6
:100888003208B507EE2B8312B0008316200807390B
:100898008312AE002E08B1000230310203189A2CE0
:1008A8003008AE000A30AF002F08AA0031089C2695
:1008B800AA3E84002E08831380000A30AE002E085A
:1008C800AA0031089C26A13E840083130010310839
:1008D800AE000A30AF002F08AA0031089C26A13EBE
:1008E8008400AE0DAE0D831300082E06E3392E06E4
:1008F80080008316200807398312AE00AE0A8316DB
:10090800200883122E06F8392E068316A0000A3016
:100918008312AE002E08AA0031089C26A13E84004E
:100928008313000CAF002F0C07390800FF300800B4
:10093800BA008A262D08B9002C08B8002B08B70081
:100948002A08B600AE2C5F083A050319AE2C5F08DA
:100958003A0508008A262A08B2002B08B3002C089A
:10096800B4002D08B5003608B2023708031C370F4B
:10097800BE2CBF2CB3023808031C380FC42CC52C5E
:10098800B4023908031C390FCA2CCB2CB502350820
:100998003102031DD92C34083002031DD92C330829
:1009A8002F02031DD92C32082E020318A72C5F082A
:1009B8000800C401C50102303E06031DFB2C61106E
:1009C800851FE72C611483120313E1100518E11445
:1009D80083120313611185186115603083120313A4
:1009E800C0004008C4000230C0004008C5003D08EF
:1009F800B1003C08B0003E08C0004008B200023018
:100A0800B3000030B4004408C1004108B5004508EF
:100A1800C2004208B6003F08C3004308B700862357
:100A28000800FE30A9270530A9272F30A92708304C
:100A3800A9270130A9270030A9272030A92700308D
:100A4800A9270030A9270330A9270830AC006F3048
:100A5800AD00AE01AF011A27FE30A9270530A9273E
:100A68002F30A9270830A9270030A9270030A92747
:100A78000030A9270030A9270030A9272230A9274C
:100A88000830AC006F30AD00AE01AF011A27080086
:100A9800B000B10183162008073983123102031808
:100AA80008000A30AE002E08AA0031089C26A13E94
:100AB80084008313000CAF002F0C07393006031D88
:100AC800702D0A30AE002E08AA0031089C26A13EDF
:100AD80084008313001008000130AE002E08B1070F
:100AE8004E2DB000FE30A9270930A9272430A927A8
:100AF8000030A9273008A9270430A9270130A927E1
:100B08002330A9270130A9278930A9270030A92730
:100B18000030A9270030A9273008833AA9270030D8
:100B2800AC006430AD00AE01AF011A270800831293
:100B3800B3004E26A52D0330DF25FE251525782682
:100B4800B52D3308B100B2013208003A0319AD2DB2
:100B5800B52D3108003A03199F2D013A0319A32D29
:100B6800B52D013075250230752503307525043003
:100B780075250800AC0083169C18BF2D83122C081D
:100B880083169B0083122A0883169A003F3083122B
:100B9800AB002B0883169C0503108B1B03148B13C7
:100BA8001C1555309D00AA309D009C141C11031C77
:100BB80008008B170800B000FE30A9270530A927C8
:100BC8002130A9270930A9270330A9270030A927F0
:100BD8000030A9270130A9273008A92730082F3A63
:100BE800A9270930AC006130AD00AE01AF011A276A
:100BF8004E260800FE30A9270530A9272130A9274D
:100C08000930A9278730A9270030A9270030A9274C
:100C18000130A9270130A927AA30A9270930AC003B
:100C28006130AD00AE01AF011A2708001008CF39B6
:100C38001038900090103C308F00AF308E00053097
:100C480084271014B530840083138001840A80013E
:100C5800840A8001840A8001F8308316A005080000
:100C68003D2E7D088400831300087B220800D601EE
:100C780008007C08A000A1012108003A0319452EAC
:100C88004D2E2008003A0319352E013A03193B2E40
:100C98004D2E080086110D3083120313AD00FB3072
:100CA800AC00AC0B552EAD0B552E00008312031370
:100CB80086158030AA004130AB004D270800AB00F4
:100CC800662E83126400831603139C18652E831204
:100CD8002B0883169B003F308312AA002A0883162C
:100CE8009C051C141A080800FE30A9270130A92702
:100CF8002530A9274030A9270030A9276430A92723
:100D08008030AA004F30AB004D2708001530A03EB8
:100D180084008313000883120313AA00840A0008BE
:100D2800AB00840A0008AC00840A0008AD00080083
:100D3800AD00AC012D1CA42E2A08AB002B08AC0773
:100D48000310AA0D0310AD0C2D08031D9E2E2C08B0
:100D58000800F300F201731CB52E7008F100710849
:100D6800F2070310F00D0310F30C7308031DAF2EE8
:100D780072080800861A0800050C0139F2000130D3
:100D8800F206F20D05087206FD3972068500043078
:100D980079270800050D050D0139F2000130F2062A
:100DA800F20CF20C050872067F39720685000430D1
:100DB80079270800AB0083168C1681120108F839D0
:100DC80003388100811183122B08AA002A08DE004B
:100DD80008000330AC002C08E000831685130510CA
:100DE80085108312851305108510043063270800C9
:100DF800050CF000700C0139F0000130F006F00D20
:100E0800F00D05087006FB39700685000800061A03
:100E1800080005080139F2000130F20605087206DB
:100E2800FE39720685000430792708002D08AB00CA
:100E38002C08AA004D272E08BC3E84008313000806
:100E48002F06031908001A2FAD002D08AC002C0836
:100E5800D700831686118312861135270730DE26C0
:100E680008008316861406151815181298160C30E3
:100E7800990083129817181608008312AB000B10FC
:100E88008B158316861683122B08AA002A08D90008
:100E980008002B085106031D532F2A085006031D6E
:100EA8004D2FD001D10108000030B1000030B00052
:100EB8000030AF000330AE005808EC23080083125E
:100EC800AB002B09AA002A08DF055F082B050319C8
:100ED8000800652FAB000B108B15831606168312BE
:100EE8002B08AA002A08DA000800F1007108F000AF
:100EF8007008DF045F0871057106031908007A2F6E
:100F0800AB000C1083160C1483122B08AA002A08B5
:100F1800DD00080083160313051104304724B200CE
:100F28003208D800C8270800831601130330412768
:100F380002306E270130B127080064008001840A5E
:100F48000406031900340406A22FAA008316981C6D
:100F5800AA2F83122A0899000800AB008B100B16E1
:100F68002B08AA002A08DB000800831203135F0875
:100F7800080058084C25C1270800831203130511DF
:100F880008008312DF01080005150800FC26080088
:020F9800FF3424
:02400E00383F39
:00000001FF
