:060000000A128A11122809
:10000800FE00030E83120313A2000408A3000A08CB
:10001800A4007F08A5000A168A11BB2D0A128A11AE
:1000280015288317DC30FD001030FE000E30FF006D
:10003800CC3084000A168A1166200A128A11903080
:100048008400CC300A168A153F270A128A1110300C
:1000580084002E300A168A153F270A128A11831641
:10006800E701E801E901EA01EB01EC0183135B30E8
:10007800840067300A168A153F2783010A128A15F9
:10008800702B4528FF0000308A007F0882074B2824
:100098000A168A15202F0A168A152F2F0A168A1172
:1000A80097280A168A15142F0A128A15B7290A16CC
:1000B8008A112A2B0A168A11572940088039C50047
:1000C8004508CA004008C5004507C6004608CC00D8
:1000D800BF1B4C144C0803197E284C0A031D7C28AE
:1000E8000030C0000030BF000030BE000030BD004E
:1000F800BF1786280030C0000030BF000030BE00A7
:100108000030BD0044088039C5004508CA064408C7
:10011800C5004507C6004608CB00C31B4B144B0857
:100128000319A3284B0A031DA1280030C40000307E
:10013800C3000030C2000030C100C317AB28003034
:10014800C4000030C3000030C2000030C1004B08BA
:10015800031D4C08031DB9280030C0000030BF0043
:100168000030BE000030BD0008003D08C50045084D
:10017800A90043080A168A11D4210A128A112A08EA
:10018800D6002908D5005508C500C601C701C80111
:100198004808D0004708CF004608CE004508CD00E3
:1001A8005608C500C601C701C8014808D400470859
:1001B800D3004608D2004508D1003E08C5004508CE
:1001C800A90042080A168A11D4210A128A112A089B
:1001D800D6002908D5005508C500C601C701C801C1
:1001E8004508CD07460803110318013E031DCE0735
:1001F800470803110318013E031DCF0748080311E0
:100208000318013E031DD0075608C500C601C701E3
:10021800C8014508D107460803110318013E031D0C
:10022800D207470803110318013E031DD3074808E6
:1002380003110318013E031DD4073F08C5004508F4
:10024800A90041080A168A11D4210A128A112A081B
:10025800D6002908D5005508C500C601C701C80140
:100268004508CD07460803110318013E031DCE07B4
:10027800470803110318013E031DCF07480803115F
:100288000318013E031DD0075608C500C601C70163
:10029800C8014508D107460803110318013E031D8C
:1002A800D207470803110318013E031DD307480866
:1002B80003110318013E031DD4070830C5000310BD
:1002C800CD0DCE0DCF0DD00DC50B63293E08C50051
:1002D8004508A90041080A168A11D4210A128A1170
:1002E8002A08D6002908D5005508C5005608C600B2
:1002F800C701C8014508CD07460803110318013E88
:10030800031DCE07470803110318013E031DCF073D
:10031800480803110318013E031DD0073D08C50016
:100328004508A90042080A168A11D4210A128A111E
:100338002A08D6002908D5005508C5005608C60061
:10034800C701C8014508CD07460803110318013E37
:10035800031DCE07470803110318013E031DCF07ED
:10036800480803110318013E031DD0070830C500D3
:100378000310CD0DCE0DCF0DD00DC50BBC293D08FA
:10038800C5004508A90041080A168A11D4210A1295
:100398008A112A08D6002908D5005508C50056082C
:1003A800C600C701C8014508CD0746080311031850
:1003B800013E031DCE07470803110318013E031D24
:1003C800CF07480803110318013E031DD0073E0854
:1003D800C5004508A90043080A168A11D4210A1243
:1003E8008A112A08D6002908D5005508C5005608DC
:1003F800C600C701C8014508D107460803110318FC
:10040800013E031DD207470803110318013E031DCF
:10041800D307480803110318013E031DD4073F08FA
:10042800C5004508A90042080A168A11D4210A12F3
:100438008A112A08D6002908D5005508C50056088B
:10044800C600C701C8014508D107460803110318AB
:10045800013E031DD207470803110318013E031D7F
:10046800D307480803110318013E031DD4073F08AA
:10047800C5004508A90043080A168A11D4210A12A2
:100488008A112A08D6002908D5005508C50056083B
:10049800C600C701C80108300310C50DC60DC70D39
:1004A800C80DFF3E031D502A4508D1074608031111
:1004B8000318013E031DD207470803110318013E24
:1004C800031DD307480803110318013E031DD40771
:1004D8005008C500C601C701C8014508D10746082C
:1004E80003110318013E031DD2074708031103181F
:1004F800013E031DD307480803110318013E031DDD
:10050800D4070830C5000310CD0DCE0DCF0DD00D8A
:10051800C50B872A4C084B07C500C601C60D450800
:10052800823ED50046080318013EFF3ED600D31B85
:10053800B82A0130C5000310D10DD20DD30DD40D4A
:10054800C50B9F2AD01B51140130C5000310CD0DD7
:10055800CE0DCF0DD00DC50BAA2AFF30D507031835
:10056800D60AFF30D6079B2ACB01D01FD12AFF30ED
:100578004D05C500FF304E05C600FF304F05C700CA
:100588007F305005C800480847044604450403194D
:100598005118CF2AD12ACB01CB0A4B080319032BB8
:1005A8000130D107003003180130D207003003189A
:1005B8000130D307003003180130D407541C032B33
:1005C8005108C5005208C6005308C7005408C8009F
:1005D8000130C900480DC80CC70CC60CC50CC90BA6
:1005E800EE2A4808D4004708D3004608D200450838
:1005F800D1000130D5070318D60A0030D6075608AF
:10060800803AFF0080307F02031D0C2BFF3055021B
:10061800031C192B7F3083120313D4008030D300BE
:100628000030D2000030D100492B83120313560842
:10063800803AFF0080307F02031D242B01305502D1
:100648000318322B003083120313D4000030D30078
:100658000030D2000030D100CA01492B83120313A5
:100668005508C5004508CC00FF30D105FF30D2053C
:100678007F30D3050030D4054C18D3174C08C5007B
:100688000310450CC6004608D4004A08C5004508B2
:10069800D4045408C0005308BF005208BE005108D3
:1006A800BD0008008316E6006608031908000A164C
:1006B8008A15C0270A128A1138088316DC008312AB
:1006C80039088316DD0083123A088316DE000A16FD
:1006D8008A15D0270A128A1138088316E100831276
:1006E80039088316E20083123A088316E3000A16D3
:1006F8008A1594270A128A1139088316D30083129F
:1007080038088316D2000A168A1175210A128A112E
:100718004A088316E500831249088316E400640832
:100728006504031D9D2B0030DC000030DD00003027
:10073800DE00640865040319A92BBB30D700DA3042
:10074800D600CF30D500B130B02B0030D700003004
:10075800D6000030D5000030D4005708BD00560838
:10076800BC005508BB005408BA0037308312C000DB
:10077800A030BF001130BE00D930BD0083165C0820
:100788008312AF0083165D088312B00083165E08DB
:100798008312B100B20100300A168A115D270A12CD
:1007A8008A113208C4003108C3003008C2002F087B
:1007B800C1000A128A1161200A128A1140088316A0
:1007C800C10083123F088316C00083123E088316B7
:1007D800BF0083123D088316BE000A128A156F25D2
:1007E8000A128A118316660884003A088317800063
:1007F800840A3B088000840A3C088000840A3D087B
:10080800800008306302031D0F2C9D306202031D17
:100818000F2C6E3061020318222CBF30BD003B3014
:10082800BC00B230BB007C30BA0039308312C00043
:10083800B430BF001730BE00CC30322CC130BD0000
:10084800A230BC000030BB002830BA003930831217
:10085800C000C630BF003730BE007830BD008316F8
:1008680061088312AF00831662088312B0008316F2
:1008780063088312B100B20100300A168A115D279D
:100888000A128A113208C4003108C3003008C200B5
:100898002F08C1000A128A1161200A128A11400821
:1008A8008316C10083123F088316C00083123E08D6
:1008B8008316BF0083123D088316BE000A128A15EC
:1008C8006F250A128A1183166608043E84003A08C6
:1008D80083178000840A3B088000840A3C08800053
:1008E800840A3D0880006608840000088312A90075
:1008F800840A0008AA00840A0008AB00840A0008D9
:10090800AC000030B0000030AF000030AE00003066
:10091800AD000A168A11CA260A128A110318A22CD7
:1009280083166608840000308000840A0030800046
:10093800840A00308000840A00308000831666082C
:10094800043E840000088312A900840A0008AA0053
:10095800840A0008AB00840A0008AC000030B0002C
:100968000030AF000030AE000030AD000A168A112A
:10097800CA260A128A110318D02C83166608043E68
:10098800840000308000840A00308000840A00302F
:100998008000840A003080004A308316A3005A3051
:1009A800A2007A30A1006430A00041308312C00058
:1009B8000030BF000030BE000030BD008316520872
:1009C8008312AF00831653088312B000B101B2013D
:1009D80000300A168A115D270A128A113208C400EB
:1009E8003108C3003008C2002F08C1000A128A115A
:1009F80061200A128A1140088316A70083123F0853
:100A08008316A60083123E088316A50083123D08AC
:100A18008316A4000A128A1116260A128A112308BC
:100A2800CD002208CC002108CB002008CA004030A5
:100A3800A3000030A2000030A1000030A0004D0843
:100A48008312C00083164C088312BF0083164B081C
:100A58008312BE0083164A088312BD00831603174B
:100A6800370883120313AF0083160317380883125D
:100A78000313B000B101B20100300A168A115D27D4
:100A88000A128A113208C4003108C3003008C200B3
:100A98002F08C1000A128A1161200A128A1140081F
:100AA8008316A70083123F088316A60083123E0808
:100AB8008316A50083123D088316A4000A128A1122
:100AC80016260A128A112308D1002208D00021080C
:100AD800CF002008CE006408650403197B2D3E3042
:100AE800DB008330DA00F230D9003930822D003053
:100AF800DB000030DA000030D9000030D8006C0884
:100B0800031D8A2D0130DF0000308D2DFF30DF00FE
:100B1800FF30E0005B08BD005A08BC005908BB0064
:100B28005808BA003F308312C0005C30BF001D3047
:100B3800BE00D930BD0083165108A3005008A2009A
:100B48004F08A1004E08A00065088312AC00831668
:100B580064088312AB00831660088312AA00831608
:100B68005F088312A9000A168A11B3210A128A1192
:100B78002908AF002A08B0000030B01BFF30B100D0
:100B8800B20001300A168A115D270A128A1132084A
:100B98008316A700831231088316A6008312300833
:100BA8008316A50083122F088316A4000A128A113F
:100BB80016260A128A1123088312C40083162208F3
:100BC8008312C300831621088312C20083162008EB
:100BD8008312C1000A128A1161200A128A11400880
:100BE8008316C10083123F088316C00083123E0893
:100BF8008316BF0083123D088316BE000A128A15A9
:100C08006F2583166608083E84003A08831780001B
:100C1800840A3B088000840A3C088000840A3D0856
:100C28008000080027088039A8002808B100270894
:100C3800A8002807A9002908B800A61B38143808F6
:100C48000319342E380A031D312E0030A700003056
:100C5800A6000030A5000030A400A617A7013C2E6E
:100C68000030A7000030A6000030A5000030A40026
:100C780023088039A8002808B1062308A8002807F7
:100C8800A9002908B900A21B3914390803195A2EDA
:100C9800390A031D572E0030A3000030A20000308F
:100CA800A1000030A000A217A301622E0030A3000B
:100CB8000030A2000030A1000030A0002308220468
:100CC80021042004031D812E0030A7000030A60057
:100CD8000030A5000030A4008030A6047F30A704AF
:100CE8003108A8002808A7042708A3002608A2009E
:100CF8002508A1002408A00008003808031D8D2E2F
:100D08000030A3000030A2000030A1000030A00095
:100D180008003808A800A9012908AB0039082802EA
:100D2800AA00031CAB032A087F3EB2002B08031855
:100D3800013E003EB3002708B0002608AF00250892
:100D4800AE002408AD000030A7000030A600003037
:100D5800A5000030A4000030B7000030B600003015
:100D6800B5000030B400B9011A3039020318002F59
:100D780039080319DC2E0130A8000310AD0DAE0DA3
:100D8800AF0DB00DA80BC12E0130A8000310A40DA3
:100D9800A50DA60DA70DA80BCA2EB71B241401304C
:100DA800A8000310B40DB50DB60DB70DA80BD52EC0
:100DB80023083002031DEA2E22082F02031DEA2E03
:100DC80021082E02031DEA2E20082D02031CFB2EEB
:100DD80037172008AD022108031C210FAE02220894
:100DE800031C220FAF022308031C230FB00201309B
:100DF800A8002808B907B82E30082F042E042D049F
:100E0800031D3414A61B232F0130A8000310A40DC2
:100E1800A50DA60DA70DA80B0A2FB71B241401308A
:100E2800A8000310B40DB50DB60DB70DA80B152FFE
:100E3800FF30B2070318B30AFF30B307062FB90112
:100E4800B71F3C2FFF303405A800FF303505A90037
:100E5800FF303605AA007F303705AB002B082A047F
:100E680029042804031924183A2F3C2FB901B90A78
:100E7800390803196E2F0130A40700300318013018
:100E8800A507003003180130A60700300318013009
:100E9800A707271C6E2F2408A8002508A9002608E4
:100EA800AA002708AB000130AC002B0DAB0CAA0C34
:100EB800A90CA80CAC0B592F2B08A7002A08A600D0
:100EC8002908A5002808A4000130B2070318B30AAE
:100ED8000030B3073308803AFF0080307F02031DDB
:100EE800772FFF303202031C872FFF30831603133E
:100EF800B2000030B3000030A7000030A600003078
:100F0800A5000030A400831603133308803AFF00BD
:100F180080307F02031D922F013032020318A12F67
:100F280083160313B201B3010030A7000030A600F6
:100F38000030A5000030A400B10183160313320865
:100F4800A8002808B800381CAB2FA617AF2F7F3091
:100F5800A8002808A6053808A8000310280CA9002E
:100F68002908A700742EAF00FE300A168A15372705
:100F78000A128A1105300A168A1537270A128A11A9
:100F880021300A168A1537270A128A1109300A16DB
:100F98008A1537270A128A1187300A168A153727C1
:100FA8000A128A1100300A168A1537270A128A117E
:100FB80000300A168A1537270A128A1101300A16D4
:100FC8008A1537270A128A112F080A168A15372711
:100FD8000A128A112F08AB3A0A168A1537270A12FD
:100FE8008A110930AB006130AC00AD01AE010A16C0
:060FF8008A1185200800AB
:10100000AA000C1083160C1483122A08A9002908C0
:10101000E4000800B9000A168A1173200A128A1522
:101020002C08B8002B08B7002A08B6002908B5001C
:101030002428831667088312390503192428831688
:1010400067088312390508000A168A1173200A12EC
:101050008A152908B1002A08B2002B08B3002C0811
:10106000B4003508B1023608031C360F3828392879
:10107000B2023708031C370F3E283F28B302380856
:10108000031C380F44284528B40234083002031DDD
:10109000532833082F02031D532832082E02031D44
:1010A000532831082D0203181928831667080800F1
:1010B000F900E428FE307906031D0800B901831207
:1010C0000313DD0183160317BC01BC0A080079086D
:1010D000F700770883120313DE007908F70077081A
:1010E00083160317B9060230F7007708BC00080022
:1010F0007908F7007708BB007908F7007708B90688
:101100000330F7007708BC0008007908F70077087B
:10111000BA007908F7007708B906831203135E084E
:10112000031D99280530F700770883160317BC00C4
:1011300008000430F700770883160317BC00080086
:101140007908F700831203135D08103E84007708C6
:10115000831780000130F7007708DD077908F70072
:10116000770883160317B906831203135D085E061A
:10117000031D0800922839087906031DE0283B0862
:10118000F700F8017708F800F7013A0877078312AB
:101190000313DB0078080318780ADC005C08F3000E
:1011A0005B08F2001030F7007708F4005E08F800E2
:1011B0007808F500831603173D080A128A114620A5
:1011C00083160317BC010800831603173C08F700B9
:1011D000F8017808003A0319EE2802297708003A46
:1011E00003195A28013A03196728033A0319782882
:1011F000013A03198528073A0319A028013A03196F
:10120000BB2802290800B600B90131080319B20150
:10121000B7013208370203181C2937083107B40018
:101220003408840083170008B5003508B90601307A
:10123000B4003408B707092932080A3EB40034085C
:10124000B9062430B4003408B9060130B4003408BB
:10125000B9060F30B4003408B9063208B4003408B7
:10126000B9062F08B4003408B9063008B4003408B1
:10127000B906FE300A168A1537270A128A1532086F
:101280000A3E0A168A1537270A128A1524300A16CA
:101290008A1537270A128A1501300A168A15372748
:1012A0000A128A1500300A168A1537270A128A157B
:1012B00000300A168A1537270A128A1536080A16C8
:1012C0008A1537270A128A1536080A168A1537270B
:1012D0000A128A152F080A168A1537270A128A1544
:1012E00030080A168A1537270A128A1500300A169E
:1012F0008A1537270A128A1500300A168A153727E9
:101300000A128A150F300A168A1537270A128A150B
:1013100032080A168A1537270A128A15B8013208C8
:1013200038020318A42938083107B40034088400AF
:10133000831700080A168A1537270A128A15013002
:10134000B4003408B8078F2939080A168A153727D8
:101350000A128A153308031908000130AB00643003
:10136000AC00AD01AE010A168A11852008003C30A0
:101370008F00AF308E00013083160317AF070030A7
:1013800003180130B007003003180130B1070030F6
:1013900003180130B20783120313A0018316031749
:1013A00010080739831203132002031808000A30BB
:1013B000F4007408F00020080A168A111E200A1290
:1013C0008A15963E8400013083178007840A003016
:1013D0000318013E031D8007840A00300318013EF4
:1013E000031D8007840A00300318013E80070A307D
:1013F000F4007408F00020080A168A111E200A1250
:101400008A15913E84008317001C8E2A0A30F4004E
:101410007408F00020080A168A111E200A128A1584
:10142000923E840083170008F500840A0008F60045
:10143000840A0008F700840A0008F8000A30F9005E
:101440007908F00020080A168A111E200A128A154F
:10145000963E840083170008FA00840A0008FB0007
:10146000840A0008FC00840A0008FD0078087D0258
:10147000031D442A77087C02031D442A76087B0258
:10148000031D442A75087A02031C8E2A0A30F400D0
:101490007408F00020080A168A111E200A128A1504
:1014A000963E8400003083178000840A003080005C
:1014B000840A00308000840A003080000A30F40082
:1014C0007408F00020080A168A111E200A128A15D4
:1014D0009A3E8400831700080A128A1146200A12D5
:1014E0008A150A30F4007408F00020080A168A11E0
:1014F0001E200A128A15913E8400831780188E2AB6
:101500000A30F4007408F00020080A168A111E2020
:101510000A128A15913E8400831700100130F400EE
:101520007408A007CE2983120313C50045080319C8
:10153000080045080D3E840083170008C1004108DB
:101540008316EC0083124508840000080A168A11ED
:10155000AC200A128A156608031DC42A45080E3EEF
:101560008400831700080319C42A8316011304306A
:101570000A168A1550270A128A1545080E3E84005D
:101580000008C1004108E6004508053E84008317B5
:101590000008BC00840A0008BD000A168A11202138
:1015A0000A128A154508073E840083170008C10007
:1015B000C201C301C4014408B0004308AF0042089F
:1015C000AE004108AD00B101B10A0D300A168A1112
:1015D000E5220A128A154508083E84008317000890
:1015E000C100C201C301C4014408B0004308AF00F8
:1015F0004208AE004108AD00B101B10A0E300A1632
:101600008A11E5220A128A154508093E84008317CB
:101610000008C100840A0008C2004108AD00420869
:10162000AE00AF01B0010230C3004308B100183072
:101630000A168A11E5220A128A1545080B3E840013
:1016400083170008C100840A0008C2004108AD00E9
:101650004208AE00AF01B0010230C3004308B10040
:1016600019300A168A11E5220A128A15450A8400E1
:1016700083170008C100840A0008C2004108AD00B9
:101680004208AE00AF01B0010230C3004308B10010
:1016900009300A168A11E5220A128A154508033E06
:1016A000840083170008C100840A0008C2004108B2
:1016B000AD004208AE00AF01B0010230C3004308E4
:1016C000B1000A300A168A11E5220A128A15023080
:1016D000C1004108AA000C300A168A11A62208008F
:1016E000703083168F0403178901880103139F014B
:1016F0008B170B1700308312A900AA000D30AB0026
:101700000030AC00BF300A168A113B210A128A153C
:10171000831681138312861B942BA90100300A16AD
:101720008A11F7210A128A150A168A1194210A12BF
:101730008A150A168A1511270A128A15023083168D
:101740000317DE000430DD00B930DC00DC0BA62B13
:10175000DD0BA62BDE0BA62BAD2B0A168A15F02768
:101760000A128A150A168A152A270A128A150A16D3
:101770008A1525270A128A150A168A1140200A128C
:101780008A1583160317DA01DA0ACE170130DC0056
:101790005C08DB00CD300A128A1593220A128A15E2
:1017A0000A168A1587270A128A1510300A168A1116
:1017B000C1200A128A1500300A168A1106210A125F
:1017C0008A15FE3A031DE62B0130E72B00300A167E
:1017D0008A1170230A128A150030B0000030AF0061
:1017E0000030AE006430AD0001300A128A150A20C4
:1017F0000A128A1583160317DC005C080313E7003E
:10180000671CDB2BFE300317DC005C08831203131C
:10181000A90000300A168A11F7210A128A158312CC
:101820000313BA01BA0A01300A168A1147220A12B2
:101830008A150A168A1559270A128A150A168A1154
:1018400073200A128A152C0883160317E7008312E7
:1018500003132B0883160317E600831203132A08C9
:1018600083160317E5008312031329088316031751
:10187000E4006708E3006608E2006508E100640828
:10188000E0000A168A151C270A128A150317DC00C5
:101890005C080313E7000A168A1173200A128A15DE
:1018A000290883160317DC00831203132A08831602
:1018B0000317DD00831203132B0883160317DE00C2
:1018C000831203132C0883160317DF006408DC025D
:1018D0006508031C650F6D2C6E2CDD026608031C69
:1018E000660F732C742CDE026708031C670F792CBB
:1018F0007A2CDF025F08031D892C5E08031D892CEA
:101900005D08031D892C14305C02031D872C031C09
:10191000D12C0A168A1173200A128A152C088316F4
:101920000317E700831203132B0883160317E6003F
:10193000831203132A0883160317E5008312031387
:10194000290883160317E40002300A168A110020C2
:101950000A128A150030B0000030AF000030AE002F
:101960000230AD0002300A128A150A200A128A15C6
:1019700002300A168A1100200A128A15BF300A1294
:101980008A1156230A128A15CD300A128A1593221B
:101990000A128A15BA0102300A168A1147220A125F
:1019A0008A150A168A1173200A128A1529088316C5
:1019B0000317DC00831203132A0883160317DD00C4
:1019C000831203132B0883160317DE0083120313FD
:1019D0002C0883160317DF006008DC026108031C73
:1019E000610FF32CF42CDD026208031C620FF92C4A
:1019F000FA2CDE026308031C630FFF2C002DDF02AC
:101A00005F08031D0F2D5E08031D0F2D5D08031DCC
:101A10000F2D14305C02031D0D2D031C482D0A16DA
:101A20008A1173200A128A152C0883160317E30003
:101A3000831203132B0883160317E2008312031388
:101A40002A0883160317E10083120313290883165B
:101A50000317E00083120313BA0104300A168A1137
:101A600047220A128A150A168A150F270A128A15A2
:101A70001A3083160317DD00F730DC00DC0B3E2D37
:101A8000DD0B3E2D432D0A168A1518270A128A15DA
:101A900083160313671D412C023083160317DE00E3
:101AA0000430DD00B930DC00DC0B542DDD0B542D8F
:101AB000DE0B542D5B2DCD300A128A1593220A12AB
:101AC0008A15BA0102300A168A1147220A128A15AB
:101AD00004300A168A1100200A128A15412C3D088A
:101AE0008039C20042088312D70083163D08C20025
:101AF0004207C30043088312D9008316BC1F822DFE
:101B000083125914831259080319962D590A031D7B
:101B1000922D00308316BD000030BC000030BB00A9
:101B20000030BA008316BC17BD019F2D003083160C
:101B3000BD000030BC000030BB000030BA004108DE
:101B40008039C20042088312D80058085706031D86
:101B5000571783164108C2004207C3004308831287
:101B6000D8008316C01FB62D83125814831258084C
:101B70000319CA2D580A031DC62D00308316C10053
:101B80000030C0000030BF000030BE008316C01718
:101B9000C101D32D00308316C1000030C0000030D9
:101BA000BF000030BE008312590858020318332EBC
:101BB000571FE02D80308316C20042088312D706DB
:101BC00059088316C20042088312DA0058088316A7
:101BD000C20042088312D9005A088316C200420884
:101BE0008312D80083163A08C20042088312DA0032
:101BF00083163E08C2004208BA0083125A088316B0
:101C0000C2004208BE003B08C20042088312DA004C
:101C100083163F08C2004208BB0083125A0883168D
:101C2000C2004208BF003C08C20042088312DA002A
:101C300083164008C2004208BC0083125A0883166B
:101C4000C2004208C0003D08C20042088312DA0008
:101C500083164108C2004208BD0083125A08831649
:101C6000C2004208C1008312DA0158088316C2007C
:101C7000C3014308C5008312590883164202C400F9
:101C8000031CC5034508803AFF0080307F02031D16
:101C90004B2E1A304402031C902E831603133D086A
:101CA0003C043B043A040319572E0130582E0030EF
:101CB000C20042088312DA0000308316BD000030F3
:101CC000BC000030BB000030BA00831258088316F5
:101CD000C20042088312D900962E5A1C7A2E5A0846
:101CE0008316C2000310420C0138C300430883125C
:101CF000DA007C2E0310DA0C83163A1C812E831234
:101D0000DA1701308316C2003D0DBD0CBC0CBB0CB4
:101D1000BA0CC20B842E0130C20042088312D907CC
:101D20008312031358085902031C6D2E571BE12E12
:101D30005908031DA52E00308316BD000030BC00DD
:101D40000030BB000030BA00080083163E08BA0716
:101D50003F0803110318013E031DBB074008031190
:101D60000318013E031DBC07410803110318013E7F
:101D7000031DBD073D1C8E2F83125A1CCA2E5A0804
:101D80008316C2000310420C0138C30043088312BB
:101D9000DA00CC2E0310DA0C83163A1CD12E8312F3
:101DA000DA1701308316C2003D0DBD0CBC0CBB0C14
:101DB000BA0CC20BD42E0130C20042088312D907DC
:101DC0008E2F83163D08803AFF004108803A7F023B
:101DD000031DF42E40083C02031DF42E3F083B0275
:101DE000031DF42E3E083A0203184E2FFF30C200A6
:101DF000FF30C300FF30C400FF30C5003E08C600FE
:101E00003F08C7004008C8004108C9003A08C60298
:101E10003B08031C3B0F0D2F0E2FC7023C08031C71
:101E20003C0F132F142FC8023D08031C3D0F192F20
:101E30001A2FC9024608C20747080318470F212F67
:101E4000222FC30748080318480F272F282FC4073D
:101E500049080318490AC5074508BD004408BC00E5
:101E60004308BB004208BA008030C2004208831217
:101E7000D706DA09DA0A5A08031D5C2F01308316E7
:101E8000BA07003003180130BB07003003180130D7
:101E9000BC07003003180130BD075C2F3E08BA02B2
:101EA0003F08031C3F0FBB024008031C400FBC024D
:101EB0004108031C410FBD0283163D083C043B044E
:101EC0003A04031D8B2F83125A08031D8B2F0030F9
:101ED0008316BD000030BC000030BB000030BA00EB
:101EE00008000130C2000310BA0DBB0DBC0DBD0DC2
:101EF000C20B732F8312DA1F7F2F83163A148312BB
:101F00005A1C842F0314852F0310DA0D5908031966
:101F10008B2F0130D9028316BC1F712F8312D80179
:101F2000DA1F9C2F5A087F39031D992F83163A1CFC
:101F30009C2F8312D801D80A831258080319D42F72
:101F400001308316BA07003003180130BB07003098
:101F500003180130BC07003003180130BD073D1CD9
:101F6000D42F3A08C2003B08C3003C08C4003D0817
:101F7000C5000130C600450DC50CC40CC30CC20C15
:101F8000C60BBB2F4508BD004408BC004308BB007E
:101F90004208BA008312590A0319D42F013083165C
:101FA000C20042088312D9078312590A031D590837
:101FB000031DE72F00308316BD000030BC00003049
:101FC000BB000030BA00831259080319D701591C0D
:101FD000EC2F8316BC17F12F7F308316C200420806
:101FE000BC05831259088316C2000310420CC300BB
:101FF0004308BD008312D71F08008316BD170800D1
:1020000083120313AA002A09A90029088316E705E9
:10201000670883122A05031908000328FF340034D7
:102020000C3400344034003496340034003400342E
:10203000003400340034003400340034F300F20182
:10204000731C26287008F1007108F2070310F00DC8
:102050000310F30C7308031D202872080800AC005D
:10206000AB012C1C37282908AA002A08AB0703104B
:10207000A90D0310AC0C2C08031D31282B080800F7
:10208000831688118312881583160810831208108E
:102090000A168A15E0270A168A110A168A11ED20F7
:1020A00008008316071387170317871103131813E4
:1020B00018121815981619309900831298171813CA
:1020C000181608007E088A007F08820062200A161F
:1020D0008A118000840A04087D0603190034FF0A6F
:1020E0000319FE0A66281F30903E840083170008FB
:1020F00083120313A900840A0008AA00840A0008B6
:10210000AB00840A0008AC0008002C08AA002B08C9
:10211000A9000A168A1563270A168A112D08103E8F
:102120008400831700082E060319080085288618E6
:102130000800080CF200720C0139F2000130F206BE
:10214000F20DF20D08087206FB39720688000430A1
:102150000A168A157A270800C0004008BC00BD0195
:10216000BE01BF013F08B0003E08AF003D08AE0011
:102170003C08AD00B101B10A0F300A168A11E52200
:102180000800AC002C08AB002B0883160317BD0019
:1021900003130812831208120A168A1151200A1614
:1021A0008A1113300A168A15B127080008121A304E
:1021B00083120313AC00F730AB00AB0BDD28AC0B84
:1021C000DD28E2288312031308168030A90041306D
:1021D000AA000A168A156327080008100330831224
:1021E0000313AA009730A900A90BF428AA0BF4281E
:1021F000831203130814033083120313AA009730C9
:10220000A900A90B0129AA0B012908008312AA0021
:102210000B29831203136400831603178C180929F2
:10222000831203132A0803178D003F300313A900FC
:102230002908831603178C050C1483120C08080058
:102240003D0883160317B800831203133C08831656
:102250000317B700831203133C08AD003D08AE001E
:10226000AF01B0010230BE003E08B1001C300A16BA
:102270008A11E5220800AE002E08AD002D08AF003F
:102280000130AB020030031CAC03AC022B0A031973
:102290002C0A031908002908AD002F0884002D0816
:1022A000831780000130AD002D08AF074029642955
:1022B0007B088400831300080A128A15582008003E
:1022C00083160317BC0108007A08FC00FD017D0895
:1022D000003A03196C2974297C08003A031958291B
:1022E000013A031960297429080003308312CB00D6
:1022F0004B08AA0004300A168A11A6220A168A116F
:102300002D08BB002C08BA002B08B9002A08B80019
:102310001830CC004C08BC000A168A113D2539083B
:10232000CA003808C9000800831203131008CF3907
:102330002038900090103C308F00AF308E000D3070
:102340000A128A1500201014AF3084008317800110
:10235000840A8001840A8001840A8001F83083168F
:10236000031790050800AD01AE01291CBD292B08FB
:10237000AD070318AE0A2C08AE0701300310AB0DF1
:10238000AC0DFF3E031DBE2901300310AA0CA90CA1
:10239000FF3E031DC52929082A04031DB5292E085F
:1023A000AA002D08A9000800B100AD01AE0129085E
:1023B000AB00AC012B08AF002C08B000311CE629A3
:1023C0002F08AD070318AE0A3008AE07013003101E
:1023D000AF0DB00DFF3E031DE7290310B10C31080E
:1023E000031DDE292E08AA002D08A9000800AB0055
:1023F000831603178C18F829831203132B0803176D
:102400008D000313290803178C003F300313AA0023
:102410002A08831603178C0503108B1B03148B13D8
:102420000C1555308D00AA308D008C140C11031C36
:1024300008008B170800FE300A168A1537270A167F
:102440008A1101300A168A1537270A168A11253093
:102450000A168A1537270A168A1140300A168A1575
:1024600037270A168A1100300A168A1537270A16E6
:102470008A1164300A168A1537270A168A118030A5
:10248000A9004F30AA000A168A1563270800C00069
:10249000BE01BF0102304006031D602A0310081D63
:1024A0000314831603174B1003184B14BF30831209
:1024B0000313BB003B08BE000D30BB003B08BF0050
:1024C0000430AF000030B0003E08BB003B08B10054
:1024D0003F08BC003C08B2003A08BD003D08B3000C
:1024E00040080A128A1503210800AF00B0018316C4
:1024F000031710080739831203133002031808006A
:102500000A30AD002D08A90030080A168A112F20C4
:102510000A168A11913E84008317000CAE002E0C1F
:1025200007392F06031DA12A0A30AD002D08A90086
:1025300030080A168A112F20913E8400831700105C
:1025400008000130AD002D08B007772AB200003036
:10255000B6000030B5000030B4000030B300881180
:1025600032080A168A1547270A168A11B7012A085F
:1025700037020318DB2A0830AE000310B30DB40D88
:10258000B50DB60DAE0BBD2AFF300A168A154727CA
:102590000A168A11AE00AF01B001B1012E08B304D2
:1025A0002F08B4043008B5043108B6040130AE0079
:1025B0002E08B707B72A88153608AD003508AC00D5
:1025C0003408AB003308AA000800B900B917881115
:1025D00039080A168A1547270A168A11BB013108DD
:1025E0003B020318282B2D08B2002E08B3002F0839
:1025F000B4003008B5003108B60003300310B60D42
:10260000FF3E031DFE2AF830B7003708A9003B083B
:102610000A168A112F200A168A113607F83E013E43
:10262000162B0310B50CB40CB30CB20CFF3E031DFB
:10263000112B3208B8003808BA003A080A168A1571
:1026400047270A168A110130B2003208BB07EF2A69
:10265000881508005D2B7408073E84008317000866
:10266000F6007408063E840000087606031D080084
:102670007408063E840003300006031D0800740839
:10268000113E840000080319492B8312031308111B
:102690004C2B83120313081504300A168A157A2767
:1026A000080074088400073083170006031D080023
:1026B00001300A168A157A2708007308443A03196C
:1026C000652B013A03196A2B6F2B7208813A0319A3
:1026D0002B2B6F2B7208C03A0319512B6F2B08005C
:1026E0000313B2000A168A11D6200A168A118F2BFC
:1026F00003300A168A11B6230A168A1101300A120B
:102700008A11B7270A168A110A168A113D260A1657
:102710008A110A168A111B220A168A119F2B320867
:10272000B000B1013108003A0319972B9F2B3008F4
:10273000003A0319782B013A0319892B9F2B01309A
:102740000A168A1103240A168A1102300A168A11FF
:1027500003240A168A1103300A168A1103240A1662
:102760008A1104300A168A1103240800AF00FE30D3
:102770000A168A1537270A168A1105300A168A158D
:1027800037270A168A1121300A168A1537270A16A2
:102790008A1109300A168A1537270A168A1103305A
:1027A0000A168A1537270A168A1100300A168A1562
:1027B00037270A168A1100300A168A1537270A1693
:1027C0008A1101300A168A1537270A168A112F082E
:1027D0000A168A1537270A168A112F082F3A0A1661
:1027E0008A1537270A168A110930AB006130AC0010
:1027F000AD01AE010A168A1185200A168A110A1641
:102800008A11D6200800AF00FE300A168A15372735
:102810000A168A1109300A168A1537270A168A11EC
:1028200024300A168A1537270A168A1100300A162C
:102830008A1537270A168A112F080A168A1537278C
:102840000A168A1104300A168A1537270A168A11C1
:1028500001300A168A1537270A168A1123300A16FC
:102860008A1537270A168A1101300A168A15372762
:102870000A168A1189300A168A1537270A168A110C
:1028800000300A168A1537270A168A1100300A16F0
:102890008A1537270A168A1100300A168A15372733
:1028A0000A168A112F08833A0A168A1537270A163C
:1028B0008A110030AB006430AC00AD01AE010A16E5
:1028C0008A11852008008312AF00831603171008B1
:1028D000073983120313AD002D08B0000330300216
:1028E0000318CC2C2F08AD000A30AE002E08A9002A
:1028F00030080A168A112F200A168A119A3E84007F
:102900002D08831780000A30AD002D08A90030087B
:102910000A168A112F200A168A11913E8400831705
:1029200000103008AD000A30AE002E08A9003008B3
:102930000A168A112F200A168A11913E8400AD0DC5
:10294000AD0D831700082D06E3392D068000831690
:1029500003171008073983120313AD00AD0A83165D
:1029600003171008831203132D06F8392D0683165A
:10297000031790000A3083120313AD002D08A9003D
:1029800030080A168A112F20913E84008317000C0C
:10299000AE002E0C07390800FF300800B300B40168
:1029A0008316031710080739831203133402031820
:1029B00008000A30B1003108A90034080A168A114B
:1029C0002F200A168A11913E84008317000CB20052
:1029D000320C07393306031D382D0A30B100310897
:1029E000A90034080A168A112F200A168A11923E6D
:1029F00084002D0883178000840A2E088000840A32
:102A00002F088000840A300880000A30B1003108A5
:102A1000A90034080A168A112F200A168A11963E38
:102A20008400003083178000840A00308000840A0C
:102A300000308000840A003080000A30B100310884
:102A4000A90034080A168A112F200A168A11913E0D
:102A50008400831780140A30B1003108A9003408BB
:102A60000A168A112F20913E840083170014080053
:102A70000130B1003108B407D02C3808BD00390846
:102A8000BE003A08BF003B08C0003C08FF3EC10042
:102A9000C10A0130C2000030C300512D0310C20D25
:102AA000C30DC10B4E2D4208C4004308C5000030C1
:102AB000C51BFF30C600C7004408BD054508BE055C
:102AC0004608BF054708C00540083F043E043D04D2
:102AD00003190800C8013C08FE3EBD00FF30031882
:102AE0000030BE003E08803A803C031D792D3D0831
:102AF000480203189F2D83120313480ABD000130BA
:102B0000BE000030BF00872D0310BE0DBF0DBD0BF2
:102B1000842D3E08C0003F08C1000030C11BFF30BB
:102B2000C200C3004008B8064108B9064208BA0608
:102B30004308BB060130BD003D08C8076B2D0130BE
:102B400083120313B807003003180130B9070030AF
:102B500003180130BA07003003180130BB073809E9
:102B6000BD003909BE00BD0A0319BE0A3D08B80000
:102B70003E08B90008008C1ED72D981CC12D1812D4
:102B800018168B160B11AF3081001A08A10021080E
:102B9000A60065080319D72DFA012630A1002108E7
:102BA000FB0065080A128A1146200A168A110B1DBD
:102BB000E92D0B118B128312031365080319E92DFC
:102BC000FA01FA0AFB0165080A128A1146200A1660
:102BD0008A11831203130C1CF72D0C1064080319BF
:102BE000F72D64080A128A1146200A168A118312E8
:102BF00003138C188C108B1C072E62080319062EE9
:102C000062080A128A1146200A168A118B100B1CC0
:102C1000302E831203130608A1002108A700831693
:102C200003174C088312031327068316160506059F
:102C30008312A1002108A800A81C272E61080319EF
:102C4000272E61080A128A1146200A168A11831259
:102C500003132708A100210883160317CC000B10CB
:102C6000831203132508FF0024088A002308840028
:102C7000220E8300FE0E7E0E0900FE300A168A1513
:102C800037270A168A1105300A168A1537270A16B9
:102C90008A112F300A168A1537270A168A1108302A
:102CA0000A168A1537270A168A1101300A168A155C
:102CB00037270A168A1100300A168A1537270A168E
:102CC0008A1120300A168A1537270A168A11003011
:102CD0000A168A1537270A168A1100300A168A152D
:102CE00037270A168A1103300A168A1537270A165B
:102CF0008A110830AB006F30AC00AD01AE010A168E
:102D00008A1185200A168A11FE300A168A1537277D
:102D10000A168A1105300A168A1537270A168A11EB
:102D20002F300A168A1537270A168A1108300A1614
:102D30008A1537270A168A1100300A168A1537278E
:102D40000A168A1100300A168A1537270A168A11C0
:102D500000300A168A1537270A168A1100300A161B
:102D60008A1537270A168A1100300A168A1537275E
:102D70000A168A1122300A168A1537270A168A116E
:102D80000830AB006F30AC00AD01AE010A168A11FD
:102D90008520080000302905B10000302A05B20066
:102DA00080302B05B3007F302C05B4003408330489
:102DB00032043104031DE42E0030AC000030AB00BF
:102DC0000030AA000030A90000302D05B10000300D
:102DD0002E05B20080302F05B3007F303005B400DF
:102DE0003408330432043104031DFE2E0030B000D9
:102DF0000030AF000030AE000030AD00AC1F242F1B
:102E00000030B1000030B2000030B3008030B400B8
:102E10002908B1022A08031C2A0F0F2F102FB20213
:102E20002B08031C2B0F152F162FB3022C08031C85
:102E30002C0F1B2F1C2FB4023408AC003308AB003E
:102E40003208AA003108A900B01F4A2F0030B10093
:102E50000030B2000030B3008030B4002D08B10261
:102E60002E08031C2E0F352F362FB2022F08031CFD
:102E70002F0F3B2F3C2FB3023008031C300F412F84
:102E8000422FB4023408B0003308AF003208AE005D
:102E90003108AD008030AC068030B00630082C021E
:102EA000031D08002F082B02031D08002E082A020C
:102EB000031D08002D0829020800B7003708031D6C
:102EC000B21F722F2F09B9003009BA003109BB00B7
:102ED0003209BC00B90A0319BA0A0319BB0A03195B
:102EE000BC0A7A2F3208BC003108BB003008BA0097
:102EF0002F08B9003208310430042F04031D892F34
:102F00000030B2000030B1000030B0000030AF003F
:102F100008009630B3003308B800FE303C050319B2
:102F2000BA2F0130B3003308B80701300310BC0CCE
:102F3000BB0CBA0CB90CFF3E031D962F8D2F013030
:102F4000B3003308B8070130B90700300318013067
:102F5000BA07003003180130BB07003003180130F6
:102F6000BC0701300310BC0CBB0CBA0CB90CFF3E03
:102F7000031DB22FFF303C050319CE2F9F2F0230C7
:102F80003802031CD02F0130B8020130B300031007
:102F9000B90DBA0DBB0DBC0DB30BC72FBB1FBF2F97
:102FA0003818DA2FFF30B905FF30BA057F30BB057E
:102FB000FF30BC050310B80C3808B300B401B501EC
:102FC000B60118300310B30DB40DB50DB60DFF3EAC
:102FD000031DE22F3308B9043408BA043508BB04D2
:102FE0003608BC043708031DB21FF72FBC173C0876
:102FF000B2003B08B1003A08B0003908AF00080041
:103E1E00861608000313E70108000A168A15A22762
:103E2E000800831203138612080083160313670813
:103E3E00080002300A168A157A27080007300A167B
:103E4E008A156E27080083160811831208150800BC
:103E5E0066080319080066080A128A11462008002F
:103E6E00A9008316981C382F831229089900080080
:103E7E0064008001840A0406031900340406402FEE
:103E8E00A900290893008316141C4A2F83121308C5
:103E9E0008008312AA008B100B162A08A900290805
:103EAE00E20008005F080A168A1175220A168A15A2
:103EBE000A168A15182708002A085C06031D692FA2
:103ECE0029085B06031D632FDB01DC010800AA0035
:103EDE000B108B1583169614861483122A08A900CC
:103EEE002908E1000800F1007108F000700883163F
:103EFE000313E704670871057106031908007B2F89
:103F0E000030B0000030AF000030AE000330AD0026
:103F1E005F080A168A11CE24080002308312BA00F6
:103F2E003A08AA0027300A168A11A6222B08B900D1
:103F3E002A08B8000800060EF000700C0139F000D7
:103F4E000130F006F00EF00D06087006DF3970062F
:103F5E0086000800AA0083168C1681120108F83913
:103F6E0003388100811183122A08A9002908E5006F
:103F7E00080003308312BB003B08AA0016300A1655
:103F8E008A11A6222C08BA002B08B9002A08B800FC
:103F9E00080003308312BB003B08AA0017300A1634
:103FAE008A11A6222C08BA002B08B9002A08B800DC
:103FBE000800831687110716871288118312881539
:103FCE00831694131413831294161412F03094055E
:103FDE0008008316031386120A300A168A11632408
:103FEE000A168A15B1003108DF000A168A150F2746
:023FFE000800B9
:04400E00F424FF3F58
:00000001FF
