:020000001028C6
:10000800FE00030E83120313A3000408A4000A08C9
:10001800A5007F08A600302A11284D27DE0083138B
:10002800A0308400DA3022274E3084005E30222748
:100038008301E0281E28FF0000308A007F0882071D
:1000480024281E2E7F2E9C2E4B2F2C28042B9D2DD2
:100058003C308F00AF308E0001308316B50700307A
:1000680003180130B607003003180130B707003015
:1000780003180130B8078312A00183162008073936
:1000880083122002031808000A30F4007408F000F4
:1000980020084126A63E8400013083138007840A85
:1000A80000300318013E031D8007840A003003183E
:1000B800013E031D8007840A00300318013E8007B3
:1000C8000A30F4007408F00020084126A13E84009C
:1000D8008313001CDB280A30F4007408F0002008A1
:1000E8004126A23E840083130008F500840A000814
:1000F800F600840A0008F700840A0008F8000A30AD
:10010800F9007908F00020084126A63E84008313F0
:100118000008FA00840A0008FB00840A0008FC00B2
:10012800840A0008FD0078087D02031DA5287708C9
:100138007C02031DA52876087B02031DA5287508E7
:100148007A02031CDB280A30F4007408F000200847
:100158004126A63E8400003083138000840A0030C4
:100168008000840A00308000840A003080000A3051
:10017800F4007408F00020084126AA3E8400831386
:1001880000081F200A30F4007408F00020084126F7
:10019800A13E840083138018DB280A30F400740819
:1001A800F00020084126A13E84008313001001308E
:1001B800F4007408A007412807309F048B170B1719
:1001C800831681138312861BEC28AA01003041256F
:1001D800E0308312C6004608DD04B7254627823082
:1001E80083120313C700DD30C600C60BF928C70BFE
:1001F800F92800000F2761261927DA260630AA26D3
:100208000030E525FE3A031D0B2901300C2900308A
:100218001E250030B1000030B0000030AF0064305F
:10022800AE0001301724C6004608DB005B1C042919
:10023800FE30C6004608AA0000304125003083126F
:10024800BC00BD00BE01BE0ABF01BF0A58243E273C
:100258000C262D08CD002C08CC002B08CB002A0832
:10026800CA003A27C6004608DB00DB1C47290030D5
:10027800BC00BD000230C6004608BE00BF01BF0A70
:100288005824023005270C262A08C6002B08C70068
:100298002C08C8002D08C9004A08C6024B08031CD0
:1002A8004B0F57295829C7024C08031C4C0F5D29CE
:1002B8005E29C8024D08031C4D0F63296429C90231
:1002C8004908031D73294808031D73294708031D9E
:1002D800732914304602031D7129031C35290C2685
:1002E8002D08CD002C08CC002B08CB002A08CA000A
:1002F8000030BC00BD000430C6004608BE00BF0187
:10030800582449270D3083120313C700FB30C60059
:10031800C60B8C29C70B8C29000042273529FA0007
:10032800132AFE307A06031D0800D101D001D2013C
:10033800D20A08007A08F80078088316B9007A0803
:10034800F80078088312D1060230F8007808D20045
:1003580008007A08F80078088316BA007A08F800C6
:1003680078088312D1060330F8007808D200080014
:100378007A08F80078088316BB007A08F80078082D
:100388008312D10683163908031DD0290530F800D9
:1003980078088312D20008000430F8007808831225
:1003A800D20008007A08F8005008BC3E840078089B
:1003B80080000130F8007808D0077A08F80078083B
:1003C800D1068316390883125006031D0800CA296E
:1003D80051087A06031D0F2A83163A08F800F90116
:1003E8007808F900F8013B0878078312CE007908ED
:1003F8000318790ACF004F08F3004E08F200BC300A
:10040800F8007808F40083163908F9007908F5002F
:10041800831253081F2083120313D20108005208C5
:10042800F800F9017908003A03191B2A2F2A7808DD
:10043800003A03199529013A03199E29033A031929
:10044800AD29013A0319BC29073A0319D629013AFB
:100458000319EC292F2A08008C1E482A981C362AD2
:10046800181218160B118B16D73081001A08A20023
:100478002208A7005A080319482AFB012730A200BE
:100488002208FC005A081F200B1D562A0B118B123C
:10049800831203135A080319562AFB01FB0AFC01AD
:1004A8005A081F20831203130C1C622A59080319C7
:1004B8005F2A59081F20831203130C108C188C1004
:1004C8008B1C6C2A570803196B2A57081F208B109E
:1004D8000B1C912A831203130608A2002208A80005
:1004E8005E082806831606058312A2002208A900C2
:1004F800291E832A560803198A2A5608892AA91EFA
:100508008A2A550803198A2A55081F2083120313BB
:100518002808A2002208DE000B1083120313260805
:10052800FF0025088A0024088400230E8300FE0E9D
:100538007E0E09002A30B8003808BA0035080319B9
:10054800B60136080A3EB8003808BA063608B800B8
:100558003808BA063008B8003808BA063108B800B2
:100568003808BA063308B8003808BA063408B8009C
:100578003808BA06FE302A2736080A3E2A272430C9
:100588002A2701302A2730082A2731082A27320843
:100598002A2732082A2733082A2734082A2700302E
:1005A8002A2700302A270F302A2736082A27BB0196
:1005B80036083B020318F72A3B083507B800380805
:1005C8008400831300082A273B083507B800380839
:1005D800840083130008B9003908BA060130B8004E
:1005E8003808BB07DC2A3A082A2737080319080005
:1005F8000130AC006430AD00AE01AF018E260800BA
:10060800542B7408063E84000008F6007608F700AC
:10061800033077060319142B02307706031D0800F0
:100628007408123E84000003031D262B050D050DDA
:100638000139F6000130F606F60CF60C05087606C8
:100648007F39462B7408123E840002300006031DD1
:10065800362B05080139F6000130F606050876063E
:10066800FE39462B7408123E840003300006031D31
:10067800482B050C0139F6000130F606F60D050881
:100688007606FD39760685000230F02608007408E3
:10069800840007300006031D08000130F02608001A
:1006A8007308443A03195C2B013A0319612B662B32
:1006B8007208813A0319052B662B7208C03A031990
:1006C8004B2B662B0800B400B501831620080739A8
:1006D80083123502031808000A30B2003208AA0053
:1006E80035083026A13E84008313000CB300330C78
:1006F80007393406031DBD2B0A30B2003208AA00A0
:1007080035083026A23E84002E0883138000840A10
:100718002F088000840A30088000840A310880008D
:100728000A30B2003208AA0035083026A63E8400F6
:10073800003083138000840A00308000840A00306F
:100748008000840A003080000A30B2003208AA0013
:1007580035083026A13E8400831380140A30B20085
:100768003208AA0035083026A13E840083130014FD
:1007780008000130B2003208B507692B8312B000B7
:100788008316200807398312AE002E08B100023004
:1007980031020318152C3008AE000A30AF002F08BC
:1007A800AA0031083026AA3E84002E088313800050
:1007B8000A30AE002E08AA0031083026A13E840077
:1007C800831300103108AE000A30AF002F08AA00CA
:1007D80031083026A13E8400AE0DAE0D831300080B
:1007E8002E06E3392E068000831620080739831267
:1007F800AE00AE0A8316200883122E06F8392E069C
:100808008316A0000A308312AE002E08AA00310811
:100818003026A13E84008313000CAF002F0C07394B
:100828000800FF300800BA000C262D08B9002C0873
:10083800B8002B08B7002A08B600292C5B083A052F
:100848000319292C5B083A0508000C262A08B2006F
:100858002B08B3002C08B4002D08B5003608B202E6
:100868003708031C370F392C3A2CB3023808031CFD
:10087800380F3F2C402CB4023908031C390F452C83
:10088800462CB50235083102031D542C34083002B9
:10089800031D542C33082F02031D542C32082E023A
:1008A8000318222C5B080800C401C50102303E066B
:1008B800031D7E2C0310851F03145D1003185D149F
:1008C800031083120313051C0314DD100318DD1431
:1008D800031083120313851C03145D1103185D159F
:1008E8005C3083120313C0004008C4000230C0000B
:1008F8004008C5003D08B1003C08B0003E08C000F3
:100908004008B2000130B3000030B4004408C10010
:100918004108B5004508C2004208B6003F08C300B8
:100928004308B7009E220800FE302A2705302A27F0
:100938002F302A2708302A2701302A2700302A2773
:1009480020302A2700302A2700302A2703302A2778
:100958000830AC006F30AD00AE01AF018E26FE301E
:100968002A2705302A272F302A2708302A2700303F
:100978002A2700302A2700302A2700302A2700306B
:100988002A2722302A270830AC006F30AD00AE018C
:10099800AF018E260800B000B10183162008073980
:1009A80083123102031808000A30AE002E08AA008C
:1009B80031083026A13E84008313000CAF002F0CB1
:1009C80007393006031DF32C0A30AE002E08AA00A2
:1009D80031083026A13E840083130010080001303E
:1009E800AE002E08B107D12CB000FE302A270930FE
:1009F8002A2724302A2700302A2730082A270430BB
:100A08002A2701302A2723302A2701302A2789302C
:100A18002A2700302A2700302A2700302A273008C2
:100A2800833A2A270030AC006430AD00AE01AF0134
:100A38008E2608008312B300D025282D03306225A6
:100A480081259824FA25382D3308B100B2013208DF
:100A5800003A0319302D382D3108003A0319222D98
:100A6800013A0319262D382D0130F8240230F824D4
:100A78000330F8240430F8240800AC0083169C18CE
:100A8800422D83122C0883169B0083122A08831692
:100A98009A003F308312AB002B0883169C05031085
:100AA8008B1B03148B131C1555309D00AA309D0019
:100AB8009C141C11031C08008B170800B000FE30A2
:100AC8002A2705302A2721302A2709302A270330E8
:100AD8002A2700302A2700302A2701302A27300801
:100AE8002A2730082F3A2A270930AC006130AD0098
:100AF800AE01AF018E26D0250800FE302A2705302A
:100B08002A2721302A2709302A2787302A27003028
:100B18002A2700302A2701302A2701302A27AA301D
:100B28002A270930AC006130AD00AE01AF018E2636
:100B38000800A62D7C088400831300089321080070
:100B4800D20108007B08A000A1012108003A03197E
:100B5800AE2DB62D2008003A03199E2D013A03192F
:100B6800A42DB62D08001008CF3910389000901029
:100B78003C308F00AF308E000530FB261014B530A6
:100B880084008001840A8001840A8001840A80012B
:100B9800F8308316A005080086110D308312031360
:100BA800AD00FB30AC00AC0BD72DAD0BD72D000042
:100BB8008312031386158030AA004130AB00CF267C
:100BC8000800AB00E82D83126400831603139C18F9
:100BD800E72D83122B0883169B003F308312AA004F
:100BE8002A0883169C051C141A080800FE302A27B8
:100BF80001302A2725302A2740302A2700302A2783
:100C080064302A278030AA004F30AB00CF26080076
:100C18001530A03E84008313000883120313AA0032
:100C2800840A0008AB00840A0008AC00840A0008A3
:100C3800AD000800861A0800050D050D0139F200FF
:100C48000130F206F20CF20C050872067F397206C2
:100C580085000230F0260800AD00AC012D1C382EAE
:100C68002A08AB002B08AC070310AA0D0310AD0C23
:100C78002D08031D322E2C080800F300F201731C06
:100C8800492E7008F1007108F2070310F00D0310E7
:100C9800F30C7308031D432E72080800AB0083167B
:100CA8008C1681120108F8390338810081118312EA
:100CB8002B08AA002A08DA0008000330AC002C0828
:100CC800DC0083168513051085108312851705141B
:100CD8008514023005270800050CF000700C013956
:100CE800F0000130F006F00DF00D05087006FB3934
:100CF800700685000800061A080005080139F20088
:100D08000130F20605087206FE39720685000230C7
:100D1800F02608002D08AB002C08AA00CF262E08C4
:100D2800BC3E8400831300082F06031908008E2E8A
:100D3800050C0139F2000130F206F20D05087206C1
:100D4800FD39720685000230F0260800AD002D0836
:100D5800AC002C08D3008316861183128611B7269F
:100D6800073052260800831686140615181518121F
:100D780098160C30990083129817181608008312D9
:100D8800AB000B108B158316861683122B08AA004E
:100D98002A08D50008002B084F06031DD52E2A085F
:100DA8004E06031DCF2ECE01CF0108000030B10042
:100DB8000030B0000030AF000330AE0054086723A5
:100DC8000800AB000B108B158316061683122B0830
:100DD800AA002A08D6000800F1007108F00070087F
:100DE800DB045B087105710603190800F12EAB00DE
:100DF8000C1083160C1483122B08AA002A08D90099
:100E08000800AB002B09AA002A08DB055B082B05A4
:100E180003190800062F8316031305110430C22393
:100E2800B2003208D40049270800831601130130A4
:100E3800C3260230E526033032270800640080010B
:100E4800840A0406031900340406232FAA00831613
:100E5800981C2B2F83122A0899000800AB008B10CE
:100E68000B162B08AA002A08D700080083120313C0
:100E78005B0808005408CF24422708008312031394
:100E8800051108008312DB0108000515080070260B
:040E98000800FF341B
:02400E00383F39
:00000001FF
